:1000000045C0000060C000005EC000005CC0000091
:100010005AC0000058C0000056C0000054C0000084
:1000200052C0000050C000004EC000004CC0000094
:100030004AC0000048C0000046C0000074C2000072
:1000400042C0000040C000003EC000003CC00000B4
:100050003AC0000038C0000036C0000034C00000C4
:1000600032C0000030C000002EC000002CC00000D4
:100070002AC0000028C0000026C0000024C00000E4
:1000800022C0000020C000001EC0000011241FBEBE
:10009000CFEFD0E1DEBFCDBF13E0A0E0B1E0E4EFF1
:1000A000FCE000E00BBF02C007900D92A23EB1073A
:1000B000D9F724E0A2EEB3E001C01D92AD37B2073C
:1000C000E1F711D315C69CCF3E9A86B1876086B9F9
:1000D000379A86B186B9089597B1907E892B87B9F2
:1000E000369A349BFECF84B195B10895E4E6F0E0F2
:1000F0008081887F808308958FE39CE90197F1F7E1
:1001000000C0000090916300892F827091FD07C0AC
:1001100090910501913019F4109205010895909184
:100120006300892F827091FF09C0809105018111C0
:1001300004C081E080930501089580E008958FE375
:100140009CE90197F1F700C0000090916300892FAE
:10015000847092FD07C090910401913019F41092BF
:100160000401089590916300892F847092FF09C063
:1001700080910401811104C081E0809304010895FD
:1001800080E008951F9A1F9808951E9A1E9808955A
:10019000CF93DF93D82FC8E0DD2314F41D9A01C05C
:1001A0001D98F0DFDD0FC150B9F7EFDFDF91CF9180
:1001B000089582B1806E82B90895EF92FF920F93F5
:1001C0001F93CF93DF937C01C0E0D0E001E010E00B
:1001D000C8010C2E02C0880F991F0A94E2F780957F
:1001E000D7DFC7018C0F9D1F60910A0170E0A7D473
:1001F000FC01E55FFC4F8081CBDF8FEC97E001973E
:10020000F1F700C000002196C830D10509F780E061
:10021000BFDFDF91CF911F910F91FF90EF90089575
:10022000EF92FF920F931F93CF93DF937C01C0E077
:10023000D0E001E010E0C8010C2E02C0880F991F29
:100240000A94E2F78095A4DFC7018C0F9D1F60918F
:10025000090170E074D4FC01ED57FC4F808198DFF8
:100260008FEC97E00197F1F700C000002196C830AD
:10027000D10509F780E08CDFDF91CF911F910F91BD
:10028000FF90EF900895EF92FF920F931F93CF93FB
:10029000DF937C01C0E0D0E001E010E0C8010C2E4B
:1002A00002C0880F991F0A94E2F7809571DFC70199
:1002B0008C0F9D1F6091080170E041D4FC01E5594D
:1002C000FC4F808165DF8FEC97E00197F1F700C06C
:1002D00000002196C830D10509F780E059DFDF9191
:1002E000CF911F910F91FF90EF900895EF92FF92A1
:1002F0000F931F93CF93DF937C01C0E0D0E001E028
:1003000010E0C8010C2E02C0880F991F0A94E2F772
:1003100080953EDFC7018C0F9D1F6091060170E044
:100320000ED4FC01E55DFC4F808132DF8FEC97E05D
:100330000197F1F700C000002196C830D10509F7F8
:1003400080E026DFDF91CF911F910F91FF90EF901A
:100350000895EF92FF920F931F93CF93DF93062F91
:1003600010E0000F111F000F111F000F111F055F7C
:100370001E4FC0E0D0E0EE24E394F12CC7010C2E18
:1003800002C0880F991F0A94E2F7809501DFF801F7
:1003900081918F01FDDE8FEC97E00197F1F700C0AE
:1003A00000002196C830D10549F780E0F1DEDF91E9
:1003B000CF911F910F91FF90EF900895EF92FF92D0
:1003C0000F931F93CF93DF93CDB7DEB728970FB668
:1003D000F894DEBF0FBECDBFFE01319698E0DF017D
:1003E0001D929A95E9F7DF01A80FB11D81E090E019
:1003F000382F01C0330F6A95EAF73C93E40FF11DE3
:1004000002C0880F991F2A95E2F79081892B80837B
:10041000EE2009F440C0F801F12CEE0CFF1C0E0D8B
:100420001F1D21E030E08281A1E0B0E0AC0FBD1FD4
:10043000A80FB11DC901038002C0880F991F0A943B
:10044000E2F79C91892B8C933296E017F10759F7CC
:1004500022C0C701002E02C0880F991F0A94E2F73C
:10046000809596DEF801E770FF2781E090E08C0F21
:100470009D1FE80FF91F80818BDEAFE9BFE0119768
:10048000F1F700C000000F5F1F4F0830110509F79A
:1004900080E07EDE06C000E010E0EE24E394F12C64
:1004A000D8CF28960FB6F894DEBF0FBECDBFDF9130
:1004B000CF911F910F91FF90EF900895EF92FF92CF
:1004C0000F931F93CF93DF93062F10E0000F111FA0
:1004D000000F111F000F111F0D5A1C4FC0E0D0E07C
:1004E000EE24E394F12CC7010C2E02C0880F991F53
:1004F0000A94E2F780954CDEF80181918F0148DE85
:100500008FE396E00197F1F700C000002196C83014
:10051000D10549F780E03CDEDF91CF911F910F912B
:10052000FF90EF9008951F920F920FB60F92112433
:100530000BB60F922F933F934F935F936F937F93DD
:100540008F939F93AF93BF93EF93FF93B2D2CED28B
:10055000FF91EF91BF91AF919F918F917F916F919B
:100560005F914F913F912F910F900BBE0F900FBE57
:100570000F901F9018951092EC0387E08093D203A0
:10058000E5EFF3E085E794E01082118232968E1752
:100590009F07D1F71092EB031092E9031092E80342
:1005A0001092E7031092E6031092E5031092E40321
:1005B0001092E3031092E20382E08093F30310921F
:1005C00076048093F20308954AD387709078992334
:1005D00024F40197886F9F6F01960895CF93DF935E
:1005E000EC011092E9031092E80377D2DC01CB0111
:1005F0008C1B9D0BA109B10985369105A105B1059B
:1006000058F08091E70390E001966091070170E057
:1006100096D28093E70361D26091EA038091E70369
:100620004DDF8DDD813009F4A6DF66DD813051F4C8
:100630008091EA038F5F833018F48093EA0302C04D
:100640001092EA03DF91CF910895E1E7F4E023EF00
:1006500033E080818283818183833297E217F307BD
:10066000C1F7E5EFF3E08091EC0380838091D20342
:10067000818308952091750430E08091EC03082E69
:10068000000C990B2817390769F52091F40330E025
:100690008091D203082E000C990B2817390711F509
:1006A0008091EB038F5F8093EB038EDF8093750463
:1006B0008BDF8093F4032091EB03222399F0409188
:1006C0007504E5EFF3E030E0220F331F2B503C4F71
:1006D0009081941303C09181891739F33296E21700
:1006E000F307B1F70895D9D1EFDC00DD62DD1AD24E
:1006F00083ED93E090937A04809379047894EDD11C
:100700004B015C01CB01AED25FDF809375048FE9B2
:100710009FE00197F1F700C0000056DF8093F403DB
:100720004091750450E02091EC03022E000C330B35
:100730004217530749F390E02091D203022E000C98
:10074000330B8217930701F3E5EFF3E085E794E0BD
:100750001082118232968E179F07D1F782E0809324
:10076000F2031092760481E08093F303B6D1DC01AA
:10077000CB0188199909AA09BB09C397A105B1053D
:1007800068F08091E50390E0019660910A0170E0C5
:10079000D6D18093E503A1D14B015C018091E503A3
:1007A00090E00BDD2091E50330E080910A0190E0BC
:1007B000019728173907D1F681E08093F303C1E050
:1007C0000F2EF3E0FF2EF02DD2E08091F303813065
:1007D00039F008F45BC0823031F0833069F1F7CF33
:1007E000C401FCDEF2CF79D1DC01CB018819990973
:1007F000AA09BB09C397A105B10568F08091E80378
:1008000090E001966091080170E099D18093E8032F
:1008100064D14B015C018091E80390E034DD2091CC
:10082000E80330E08091080190E00197281739072C
:1008300061F61092F303C9CF50D1DC01CB018819C6
:100840009909AA09BB09C397A105B10568F0809170
:10085000E60390E001966091060170E070D180930C
:10086000E6033BD14B015C018091E60390E03EDD65
:100870002091E60330E08091060190E0019728176F
:10088000390709F0A2CFC093F3039FCF809176047C
:10089000882321F0813009F4A2C0F5C080E01CDC7F
:1008A000082F192F8C2F18DC8931910518F4C0936B
:1008B000F20313C0803D934018F01092F2030DC074
:1008C000802F912F8931910518F4D093F20305C040
:1008D000803D934010F0F092F203FFD0AB01BC01D9
:1008E000481959096A097B09E091EA03F0E0EE0F23
:1008F000FF1FE453FC4F80819181A0E0B0E084179A
:100900009507A607B70728F58091F203813061F0BB
:1009100028F08230A9F0833069F017C08091D203AB
:1009200081508093D20311C08091D2038F5F809356
:10093000D2030BC08091EC0381508093EC0305C07F
:100940008091EC038F5F8093EC03C7D04B015C0177
:100950007CDE6091D2036830B4F44091EC034830FF
:1009600090F4662384F0E7EFF3E02091EB0330E0AE
:10097000220F331F29503C4F042E000C550B062E1E
:10098000000C770B0FC0C09376047DC0808190E08F
:100990008417950731F4818190E08617970709F451
:1009A00079C032962E173F0789F7809176048130FF
:1009B00009F469C05FDE8091EB038F3319F4F09284
:1009C000F30361C0E82E05EF13E02091F40340919A
:1009D00075046091D2038091EC03F0DC54C08091E7
:1009E000E203882319F0813051F14DC076D0DC014B
:1009F000CB0188199909AA09BB098497A105B105FA
:100A000068F08091E90390E001966091090170E03F
:100A100096D08093E90361D04B015C018091E9039A
:100A200090E0FEDB2091E90330E08091090190E045
:100A300001972817390739F5C093E20324C04DD038
:100A4000DC01CB0188199909AA09BB098497A10582
:100A5000B10540F08091E403875F8093E4033DD0CB
:100A60004B015C018091E4036091EB0390E071DC49
:100A70008091E3038F5F8093E3038F3F21F4C09362
:100A8000F3031092E2035BDB813009F09ECEC0934A
:100A9000F3039BCEC0937604F6CF83B7846083BF05
:100AA00083B7896083BF87B7826087BF89EF81BFC3
:100AB00008958091EE039091EF03A091F003B0911F
:100AC000F1030196A11DB11D8093EE039093EF03F6
:100AD000A093F003B093F10308956091EE03709139
:100AE000EF038091F0039091F10308956091EE037C
:100AF0007091EF038091F0039091F10328EE33E0C1
:100B000040E050E02FD0672B682B692B51F4809187
:100B1000ED038F5F8C3318F48093ED0308951092EA
:100B2000ED0308958AB188698AB9599A10929000A4
:100B30008FEC89B908955D9BFECF8CB9089597FB22
:100B4000072E16F4009406D077FD08D02DD007FCB0
:100B500005D03EF4909581959F4F089570956195CD
:100B60007F4F0895A1E21A2EAA1BBB1BFD010DC0E9
:100B7000AA1FBB1FEE1FFF1FA217B307E407F5074D
:100B800020F0A21BB30BE40BF50B661F771F881F29
:100B9000991F1A9469F760957095809590959B01BF
:100BA000AC01BD01CF010895AA1BBB1B51E107C0D9
:100BB000AA1FBB1FA617B70710F0A61BB70B881FED
:100BC000991F5A95A9F780959095BC01CD0108957C
:100BD0008F929F92AF92BF92CF92DF92EF92FF924D
:100BE000CF93DF93EC01688179818A819B816115C4
:100BF00071058105910521F464E279ED8BE597E0BB
:100C00002DE133EF41E050E038D049015A019B011A
:100C1000AC01A7EAB1E44DD06B017C01ACEEB4EFBE
:100C2000A501940152D0DC01CB018C0D9D1DAE1DA0
:100C3000BF1DB7FF03C00197A109B04888839983FE
:100C4000AA83BB839F77DF91CF91FF90EF90DF90D6
:100C5000CF90BF90AF909F908F900895B9CF80E0D4
:100C600091E0B6CFA0E0B0E0809300019093010145
:100C7000A0930201B09303010895052E97FB16F48B
:100C800000940FD057FD05D06DDF07FC02D046F46D
:100C900008C050954095309521953F4F4F4F5F4F7D
:100CA000089590958095709561957F4F8F4F9F4FD8
:100CB00008950FD0A59F900DB49F900DA49F800D17
:100CC000911D11240895B7FFF4CFF3DF821B930B1E
:100CD0000895A29FB001B39FC001A39F700D811D15
:100CE0001124911DB29F700D811D1124911D089535
:040CF000F894FFCFA6
:100CF4000100000001012818184920007C447C00F0
:100D04007C447C007C447C0000047C007C447C00AB
:100D140074545C007C447C0054547C007C447C000F
:100D24001C107C007C447C005C5474007C447C007B
:100D34007C5070007C447C001C047C007C447C005F
:100D44007C547C007C447C001C147C0000047C00EB
:100D54007C447C0000047C0000047C0000047C00D3
:100D640074545C0000047C0054547C0000047C0037
:100D74001C107C0000047C005C54740000047C00A3
:100D84007C50700000047C001C047C0000047C0087
:100D94007C547C0000047C001C147C0074545C00B3
:100DA4007C447C0074545C0000047C0074545C003B
:100DB40074545C0074545C0054547C0074545C009F
:100DC4001C107C0074545C005C54740074545C000B
:100DD4007C50700074545C000C047C0074545C00FF
:100DE4007C547C0074545C001C147C0054547C00BF
:100DF4007C447C0054547C0000047C0054547C00EB
:100E040074545C0054547C0054547C0054547C004E
:100E14001C107C0054547C005C54740054547C00BA
:100E24007C50700054547C000C047C0054547C00AE
:100E34007C547C0054547C001C147C001C107C00EA
:100E44007C447C001C107C0000047C001C107C0092
:100E540074545C001C107C0054547C001C107C00F6
:100E64001C107C001C107C005C5474001C107C0062
:100E74007C5070001C107C000C047C001C107C0056
:100E84007C547C001C107C001C147C005C5474009A
:100E94007C447C005C54740000047C005C5474004A
:100EA40074545C005C54740054547C005C547400AE
:100EB4001C107C005C5474005C5474005C5474001A
:100EC4007C5070005C5474000C047C005C5474000E
:100ED4007C547C005C5474001C147C007C507000B6
:100EE4007C447C007C50700000047C007C507000CA
:100EF40074545C007C50700054547C00000000006A
:100F0400000000004E4A7A007808780078287800BB
:100F140078304800785858000000000000000000B5
:100F2400000000004E4A7A007E407E007E4242006D
:100F34007E4242007E4A4A004E4A7A004E4A7A0075
:100F4400005E00000044447E400000000062524AFB
:100F54004C000000004A4A4A36000000000000002D
:100F6400000000007E0A0E007E4040007C0A7C00E7
:100F74000E700E000000000000000000FFFFC3C35D
:100F84007E3C0000FFFFDBDBDBC30000F8FE1B1B25
:100F9400FEF80000FFFFC3C37E3C00004224184259
:100FA4002418005C5474007C4444007C447C007C21
:100FB4000804007C545C0000000028002C01C800D8
:100FC40064000700000002000000009B0500000010
:020FD40000001B
:00000001FF
